{
  "_format": "hh-sol-artifact-1",
  "contractName": "Voting",
  "sourceName": "contracts/Voting.sol",
  "abi": [
    {
      "inputs": [
        {
          "internalType": "string[]",
          "name": "_Canditatesnames",
          "type": "string[]"
        },
        {
          "internalType": "uint256",
          "name": "_durationminutes",
          "type": "uint256"
        }
      ],
      "stateMutability": "nonpayable",
      "type": "constructor"
    },
    {
      "inputs": [
        {
          "internalType": "uint256",
          "name": "",
          "type": "uint256"
        }
      ],
      "name": "Canditates",
      "outputs": [
        {
          "internalType": "string",
          "name": "name",
          "type": "string"
        },
        {
          "internalType": "uint256",
          "name": "voteCount",
          "type": "uint256"
        }
      ],
      "stateMutability": "view",
      "type": "function"
    },
    {
      "inputs": [
        {
          "internalType": "string",
          "name": "_name",
          "type": "string"
        }
      ],
      "name": "addCanditate",
      "outputs": [],
      "stateMutability": "nonpayable",
      "type": "function"
    },
    {
      "inputs": [],
      "name": "getAllvotes",
      "outputs": [
        {
          "components": [
            {
              "internalType": "string",
              "name": "name",
              "type": "string"
            },
            {
              "internalType": "uint256",
              "name": "voteCount",
              "type": "uint256"
            }
          ],
          "internalType": "struct Voting.Canditate[]",
          "name": "",
          "type": "tuple[]"
        }
      ],
      "stateMutability": "view",
      "type": "function"
    },
    {
      "inputs": [],
      "name": "getcurrentstatus",
      "outputs": [
        {
          "internalType": "bool",
          "name": "",
          "type": "bool"
        }
      ],
      "stateMutability": "view",
      "type": "function"
    },
    {
      "inputs": [],
      "name": "getremainingtime",
      "outputs": [
        {
          "internalType": "uint256",
          "name": "",
          "type": "uint256"
        }
      ],
      "stateMutability": "view",
      "type": "function"
    },
    {
      "inputs": [
        {
          "internalType": "uint256",
          "name": "_canditateIndex",
          "type": "uint256"
        }
      ],
      "name": "vote",
      "outputs": [],
      "stateMutability": "nonpayable",
      "type": "function"
    },
    {
      "inputs": [
        {
          "internalType": "address",
          "name": "",
          "type": "address"
        }
      ],
      "name": "voters",
      "outputs": [
        {
          "internalType": "bool",
          "name": "",
          "type": "bool"
        }
      ],
      "stateMutability": "view",
      "type": "function"
    }
  ],
  "bytecode": "0x60806040523480156200001157600080fd5b506040516200193038038062001930833981810160405281019062000037919062000419565b60005b8251811015620000dc57600060405180604001604052808584815181106200006757620000666200047f565b5b60200260200101518152602001600081525090806001815401808255809150506001900390600052602060002090600202016000909190919091506000820151816000019081620000b99190620006ef565b506020820151816001015550508080620000d39062000805565b9150506200003a565b5033600160006101000a81548173ffffffffffffffffffffffffffffffffffffffff021916908373ffffffffffffffffffffffffffffffffffffffff16021790555042600381905550603c8162000134919062000852565b426200014191906200089d565b6004819055505050620008d8565b6000604051905090565b600080fd5b600080fd5b600080fd5b6000601f19601f8301169050919050565b7f4e487b7100000000000000000000000000000000000000000000000000000000600052604160045260246000fd5b620001b38262000168565b810181811067ffffffffffffffff82111715620001d557620001d462000179565b5b80604052505050565b6000620001ea6200014f565b9050620001f88282620001a8565b919050565b600067ffffffffffffffff8211156200021b576200021a62000179565b5b602082029050602081019050919050565b600080fd5b600080fd5b600067ffffffffffffffff82111562000254576200025362000179565b5b6200025f8262000168565b9050602081019050919050565b60005b838110156200028c5780820151818401526020810190506200026f565b60008484015250505050565b6000620002af620002a98462000236565b620001de565b905082815260208101848484011115620002ce57620002cd62000231565b5b620002db8482856200026c565b509392505050565b600082601f830112620002fb57620002fa62000163565b5b81516200030d84826020860162000298565b91505092915050565b60006200032d6200032784620001fd565b620001de565b905080838252602082019050602084028301858111156200035357620003526200022c565b5b835b81811015620003a157805167ffffffffffffffff8111156200037c576200037b62000163565b5b8086016200038b8982620002e3565b8552602085019450505060208101905062000355565b5050509392505050565b600082601f830112620003c357620003c262000163565b5b8151620003d584826020860162000316565b91505092915050565b6000819050919050565b620003f381620003de565b8114620003ff57600080fd5b50565b6000815190506200041381620003e8565b92915050565b6000806040838503121562000433576200043262000159565b5b600083015167ffffffffffffffff8111156200045457620004536200015e565b5b6200046285828601620003ab565b9250506020620004758582860162000402565b9150509250929050565b7f4e487b7100000000000000000000000000000000000000000000000000000000600052603260045260246000fd5b600081519050919050565b7f4e487b7100000000000000000000000000000000000000000000000000000000600052602260045260246000fd5b600060028204905060018216806200050157607f821691505b602082108103620005175762000516620004b9565b5b50919050565b60008190508160005260206000209050919050565b60006020601f8301049050919050565b600082821b905092915050565b600060088302620005817fffffffffffffffffffffffffffffffffffffffffffffffffffffffffffffffff8262000542565b6200058d868362000542565b95508019841693508086168417925050509392505050565b6000819050919050565b6000620005d0620005ca620005c484620003de565b620005a5565b620003de565b9050919050565b6000819050919050565b620005ec83620005af565b62000604620005fb82620005d7565b8484546200054f565b825550505050565b600090565b6200061b6200060c565b62000628818484620005e1565b505050565b5b8181101562000650576200064460008262000611565b6001810190506200062e565b5050565b601f8211156200069f5762000669816200051d565b620006748462000532565b8101602085101562000684578190505b6200069c620006938562000532565b8301826200062d565b50505b505050565b600082821c905092915050565b6000620006c460001984600802620006a4565b1980831691505092915050565b6000620006df8383620006b1565b9150826002028217905092915050565b620006fa82620004ae565b67ffffffffffffffff81111562000716576200071562000179565b5b620007228254620004e8565b6200072f82828562000654565b600060209050601f83116001811462000767576000841562000752578287015190505b6200075e8582620006d1565b865550620007ce565b601f19841662000777866200051d565b60005b82811015620007a1578489015182556001820191506020850194506020810190506200077a565b86831015620007c15784890151620007bd601f891682620006b1565b8355505b6001600288020188555050505b505050505050565b7f4e487b7100000000000000000000000000000000000000000000000000000000600052601160045260246000fd5b60006200081282620003de565b91507fffffffffffffffffffffffffffffffffffffffffffffffffffffffffffffffff8203620008475762000846620007d6565b5b600182019050919050565b60006200085f82620003de565b91506200086c83620003de565b92508282026200087c81620003de565b91508282048414831517620008965762000895620007d6565b5b5092915050565b6000620008aa82620003de565b9150620008b783620003de565b9250828201905080821115620008d257620008d1620007d6565b5b92915050565b61104880620008e86000396000f3fe608060405234801561001057600080fd5b506004361061007d5760003560e01c80639cc136d61161005b5780639cc136d6146100da578063a3ec138d1461010b578063af2575e41461013b578063b06425f1146101595761007d565b80630121b93f1461008257806315c687481461009e5780631c2d1d17146100bc575b600080fd5b61009c60048036038101906100979190610646565b610175565b005b6100a66102df565b6040516100b39190610682565b60405180910390f35b6100c461034b565b6040516100d191906106b8565b60405180910390f35b6100f460048036038101906100ef9190610646565b610365565b604051610102929190610763565b60405180910390f35b610125600480360381019061012091906107f1565b610421565b60405161013291906106b8565b60405180910390f35b610143610441565b6040516101509190610976565b60405180910390f35b610173600480360381019061016e9190610acd565b61053c565b005b600260003373ffffffffffffffffffffffffffffffffffffffff1673ffffffffffffffffffffffffffffffffffffffff16815260200190815260200160002060009054906101000a900460ff1615610202576040517f08c379a00000000000000000000000000000000000000000000000000000000081526004016101f990610b62565b60405180910390fd5b6000805490508110610249576040517f08c379a000000000000000000000000000000000000000000000000000000000815260040161024090610bce565b60405180910390fd5b6000818154811061025d5761025c610bee565b5b9060005260206000209060020201600101600081548092919061027f90610c4c565b91905055506001600260003373ffffffffffffffffffffffffffffffffffffffff1673ffffffffffffffffffffffffffffffffffffffff16815260200190815260200160002060006101000a81548160ff02191690831515021790555050565b600080421015610324576040517f08c379a000000000000000000000000000000000000000000000000000000000815260040161031b90610ce0565b60405180910390fd5b6004544210156103375760009050610348565b426004546103459190610d00565b90505b90565b60006003544210158015610360575060045442105b905090565b6000818154811061037557600080fd5b906000526020600020906002020160009150905080600001805461039890610d63565b80601f01602080910402602001604051908101604052809291908181526020018280546103c490610d63565b80156104115780601f106103e657610100808354040283529160200191610411565b820191906000526020600020905b8154815290600101906020018083116103f457829003601f168201915b5050505050908060010154905082565b60026020528060005260406000206000915054906101000a900460ff1681565b60606000805480602002602001604051908101604052809291908181526020016000905b82821015610533578382906000526020600020906002020160405180604001604052908160008201805461049890610d63565b80601f01602080910402602001604051908101604052809291908181526020018280546104c490610d63565b80156105115780601f106104e657610100808354040283529160200191610511565b820191906000526020600020905b8154815290600101906020018083116104f457829003601f168201915b5050505050815260200160018201548152505081526020019060010190610465565b50505050905090565b600160009054906101000a900473ffffffffffffffffffffffffffffffffffffffff1673ffffffffffffffffffffffffffffffffffffffff163373ffffffffffffffffffffffffffffffffffffffff161461059657600080fd5b600060405180604001604052808381526020016000815250908060018154018082558091505060019003906000526020600020906002020160009091909190915060008201518160000190816105ec9190610f40565b5060208201518160010155505050565b6000604051905090565b600080fd5b600080fd5b6000819050919050565b61062381610610565b811461062e57600080fd5b50565b6000813590506106408161061a565b92915050565b60006020828403121561065c5761065b610606565b5b600061066a84828501610631565b91505092915050565b61067c81610610565b82525050565b60006020820190506106976000830184610673565b92915050565b60008115159050919050565b6106b28161069d565b82525050565b60006020820190506106cd60008301846106a9565b92915050565b600081519050919050565b600082825260208201905092915050565b60005b8381101561070d5780820151818401526020810190506106f2565b60008484015250505050565b6000601f19601f8301169050919050565b6000610735826106d3565b61073f81856106de565b935061074f8185602086016106ef565b61075881610719565b840191505092915050565b6000604082019050818103600083015261077d818561072a565b905061078c6020830184610673565b9392505050565b600073ffffffffffffffffffffffffffffffffffffffff82169050919050565b60006107be82610793565b9050919050565b6107ce816107b3565b81146107d957600080fd5b50565b6000813590506107eb816107c5565b92915050565b60006020828403121561080757610806610606565b5b6000610815848285016107dc565b91505092915050565b600081519050919050565b600082825260208201905092915050565b6000819050602082019050919050565b600082825260208201905092915050565b6000610866826106d3565b610870818561084a565b93506108808185602086016106ef565b61088981610719565b840191505092915050565b61089d81610610565b82525050565b600060408301600083015184820360008601526108c0828261085b565b91505060208301516108d56020860182610894565b508091505092915050565b60006108ec83836108a3565b905092915050565b6000602082019050919050565b600061090c8261081e565b6109168185610829565b9350836020820285016109288561083a565b8060005b85811015610964578484038952815161094585826108e0565b9450610950836108f4565b925060208a0199505060018101905061092c565b50829750879550505050505092915050565b600060208201905081810360008301526109908184610901565b905092915050565b600080fd5b600080fd5b7f4e487b7100000000000000000000000000000000000000000000000000000000600052604160045260246000fd5b6109da82610719565b810181811067ffffffffffffffff821117156109f9576109f86109a2565b5b80604052505050565b6000610a0c6105fc565b9050610a1882826109d1565b919050565b600067ffffffffffffffff821115610a3857610a376109a2565b5b610a4182610719565b9050602081019050919050565b82818337600083830152505050565b6000610a70610a6b84610a1d565b610a02565b905082815260208101848484011115610a8c57610a8b61099d565b5b610a97848285610a4e565b509392505050565b600082601f830112610ab457610ab3610998565b5b8135610ac4848260208601610a5d565b91505092915050565b600060208284031215610ae357610ae2610606565b5b600082013567ffffffffffffffff811115610b0157610b0061060b565b5b610b0d84828501610a9f565b91505092915050565b7f596f75206861766520616c726561647920766f74656400000000000000000000600082015250565b6000610b4c6016836106de565b9150610b5782610b16565b602082019050919050565b60006020820190508181036000830152610b7b81610b3f565b9050919050565b7f496e76616c696420766f74650000000000000000000000000000000000000000600082015250565b6000610bb8600c836106de565b9150610bc382610b82565b602082019050919050565b60006020820190508181036000830152610be781610bab565b9050919050565b7f4e487b7100000000000000000000000000000000000000000000000000000000600052603260045260246000fd5b7f4e487b7100000000000000000000000000000000000000000000000000000000600052601160045260246000fd5b6000610c5782610610565b91507fffffffffffffffffffffffffffffffffffffffffffffffffffffffffffffffff8203610c8957610c88610c1d565b5b600182019050919050565b7f566f74696e6720686173206e6f74207965742073746172746564000000000000600082015250565b6000610cca601a836106de565b9150610cd582610c94565b602082019050919050565b60006020820190508181036000830152610cf981610cbd565b9050919050565b6000610d0b82610610565b9150610d1683610610565b9250828203905081811115610d2e57610d2d610c1d565b5b92915050565b7f4e487b7100000000000000000000000000000000000000000000000000000000600052602260045260246000fd5b60006002820490506001821680610d7b57607f821691505b602082108103610d8e57610d8d610d34565b5b50919050565b60008190508160005260206000209050919050565b60006020601f8301049050919050565b600082821b905092915050565b600060088302610df67fffffffffffffffffffffffffffffffffffffffffffffffffffffffffffffffff82610db9565b610e008683610db9565b95508019841693508086168417925050509392505050565b6000819050919050565b6000610e3d610e38610e3384610610565b610e18565b610610565b9050919050565b6000819050919050565b610e5783610e22565b610e6b610e6382610e44565b848454610dc6565b825550505050565b600090565b610e80610e73565b610e8b818484610e4e565b505050565b5b81811015610eaf57610ea4600082610e78565b600181019050610e91565b5050565b601f821115610ef457610ec581610d94565b610ece84610da9565b81016020851015610edd578190505b610ef1610ee985610da9565b830182610e90565b50505b505050565b600082821c905092915050565b6000610f1760001984600802610ef9565b1980831691505092915050565b6000610f308383610f06565b9150826002028217905092915050565b610f49826106d3565b67ffffffffffffffff811115610f6257610f616109a2565b5b610f6c8254610d63565b610f77828285610eb3565b600060209050601f831160018114610faa5760008415610f98578287015190505b610fa28582610f24565b86555061100a565b601f198416610fb886610d94565b60005b82811015610fe057848901518255600182019150602085019450602081019050610fbb565b86831015610ffd5784890151610ff9601f891682610f06565b8355505b6001600288020188555050505b50505050505056fea26469706673582212200178d8c1bae6d074d403db2d4817462df37f0b80183d4075ab33971a013d419064736f6c63430008130033",
  "linkReferences": {},
  "deployedLinkReferences": {}
}